{
  "_format": "hh-sol-artifact-1",
  "contractName": "Marketplace",
  "sourceName": "src/backend/contracts/Marketplace.sol",
  "abi": [
    {
      "inputs": [
        {
          "internalType": "uint256",
          "name": "_feePercent",
          "type": "uint256"
        }
      ],
      "stateMutability": "nonpayable",
      "type": "constructor"
    },
    {
      "anonymous": false,
      "inputs": [
        {
          "indexed": false,
          "internalType": "uint256",
          "name": "itemId",
          "type": "uint256"
        },
        {
          "indexed": true,
          "internalType": "address",
          "name": "nft",
          "type": "address"
        },
        {
          "indexed": false,
          "internalType": "uint256",
          "name": "tokenId",
          "type": "uint256"
        },
        {
          "indexed": false,
          "internalType": "uint256",
          "name": "price",
          "type": "uint256"
        },
        {
          "indexed": true,
          "internalType": "address",
          "name": "seller",
          "type": "address"
        },
        {
          "indexed": true,
          "internalType": "address",
          "name": "buyer",
          "type": "address"
        }
      ],
      "name": "Bought",
      "type": "event"
    },
    {
      "anonymous": false,
      "inputs": [
        {
          "indexed": false,
          "internalType": "uint256",
          "name": "itemId",
          "type": "uint256"
        },
        {
          "indexed": true,
          "internalType": "address",
          "name": "nft",
          "type": "address"
        },
        {
          "indexed": false,
          "internalType": "uint256",
          "name": "tokenId",
          "type": "uint256"
        },
        {
          "indexed": false,
          "internalType": "uint256",
          "name": "price",
          "type": "uint256"
        },
        {
          "indexed": true,
          "internalType": "address",
          "name": "seller",
          "type": "address"
        }
      ],
      "name": "Offered",
      "type": "event"
    },
    {
      "inputs": [],
      "name": "feeAccount",
      "outputs": [
        {
          "internalType": "address payable",
          "name": "",
          "type": "address"
        }
      ],
      "stateMutability": "view",
      "type": "function"
    },
    {
      "inputs": [],
      "name": "feePercent",
      "outputs": [
        {
          "internalType": "uint256",
          "name": "",
          "type": "uint256"
        }
      ],
      "stateMutability": "view",
      "type": "function"
    },
    {
      "inputs": [],
      "name": "getFeeAccount",
      "outputs": [
        {
          "internalType": "address",
          "name": "",
          "type": "address"
        }
      ],
      "stateMutability": "view",
      "type": "function"
    },
    {
      "inputs": [],
      "name": "getFeePercent",
      "outputs": [
        {
          "internalType": "uint256",
          "name": "",
          "type": "uint256"
        }
      ],
      "stateMutability": "view",
      "type": "function"
    },
    {
      "inputs": [],
      "name": "getItemCount",
      "outputs": [
        {
          "internalType": "uint256",
          "name": "",
          "type": "uint256"
        }
      ],
      "stateMutability": "view",
      "type": "function"
    },
    {
      "inputs": [
        {
          "internalType": "uint256",
          "name": "id",
          "type": "uint256"
        }
      ],
      "name": "getItems",
      "outputs": [
        {
          "components": [
            {
              "internalType": "uint256",
              "name": "itemId",
              "type": "uint256"
            },
            {
              "internalType": "contract IERC721",
              "name": "nft",
              "type": "address"
            },
            {
              "internalType": "uint256",
              "name": "tokenId",
              "type": "uint256"
            },
            {
              "internalType": "uint256",
              "name": "price",
              "type": "uint256"
            },
            {
              "internalType": "address payable",
              "name": "seller",
              "type": "address"
            },
            {
              "internalType": "bool",
              "name": "sold",
              "type": "bool"
            }
          ],
          "internalType": "struct Marketplace.Item",
          "name": "",
          "type": "tuple"
        }
      ],
      "stateMutability": "view",
      "type": "function"
    },
    {
      "inputs": [
        {
          "internalType": "uint256",
          "name": "_itemId",
          "type": "uint256"
        }
      ],
      "name": "getTotalPrice",
      "outputs": [
        {
          "internalType": "uint256",
          "name": "",
          "type": "uint256"
        }
      ],
      "stateMutability": "view",
      "type": "function"
    },
    {
      "inputs": [],
      "name": "itemCount",
      "outputs": [
        {
          "internalType": "uint256",
          "name": "",
          "type": "uint256"
        }
      ],
      "stateMutability": "view",
      "type": "function"
    },
    {
      "inputs": [
        {
          "internalType": "uint256",
          "name": "",
          "type": "uint256"
        }
      ],
      "name": "items",
      "outputs": [
        {
          "internalType": "uint256",
          "name": "itemId",
          "type": "uint256"
        },
        {
          "internalType": "contract IERC721",
          "name": "nft",
          "type": "address"
        },
        {
          "internalType": "uint256",
          "name": "tokenId",
          "type": "uint256"
        },
        {
          "internalType": "uint256",
          "name": "price",
          "type": "uint256"
        },
        {
          "internalType": "address payable",
          "name": "seller",
          "type": "address"
        },
        {
          "internalType": "bool",
          "name": "sold",
          "type": "bool"
        }
      ],
      "stateMutability": "view",
      "type": "function"
    },
    {
      "inputs": [
        {
          "internalType": "contract IERC721",
          "name": "_nft",
          "type": "address"
        },
        {
          "internalType": "uint256",
          "name": "_tokenId",
          "type": "uint256"
        },
        {
          "internalType": "uint256",
          "name": "_price",
          "type": "uint256"
        }
      ],
      "name": "makeItem",
      "outputs": [],
      "stateMutability": "nonpayable",
      "type": "function"
    },
    {
      "inputs": [
        {
          "internalType": "uint256",
          "name": "_itemId",
          "type": "uint256"
        }
      ],
      "name": "purchaseItem",
      "outputs": [],
      "stateMutability": "payable",
      "type": "function"
    }
  ],
  "bytecode": "0x60c060405234801561001057600080fd5b506040516112a43803806112a483398181016040528101906100329190610094565b60016000819055503373ffffffffffffffffffffffffffffffffffffffff1660808173ffffffffffffffffffffffffffffffffffffffff1660601b815250508060a08181525050506100de565b60008151905061008e816100c7565b92915050565b6000602082840312156100a657600080fd5b60006100b48482850161007f565b91505092915050565b6000819050919050565b6100d0816100bd565b81146100db57600080fd5b50565b60805160601c60a051611182610122600039600081816104140152818161043a01526104ed0152600081816102a8015281816102ce015261067101526111826000f3fe60806040526004361061009c5760003560e01c80637fd6f15c116100645780637fd6f15c1461018a578063be74264d146101b5578063bfb231d2146101e0578063ca7dd37514610222578063d38ea5bf1461025f578063fa00afc71461027b5761009c565b80634614be9f146100a157806365e17c9d146100cc5780636bfb0d01146100f75780637749cf2314610122578063796c5e941461014d575b600080fd5b3480156100ad57600080fd5b506100b66102a4565b6040516100c39190610d3d565b60405180910390f35b3480156100d857600080fd5b506100e16102cc565b6040516100ee9190610d58565b60405180910390f35b34801561010357600080fd5b5061010c6102f0565b6040516101199190610de5565b60405180910390f35b34801561012e57600080fd5b506101376102f6565b6040516101449190610de5565b60405180910390f35b34801561015957600080fd5b50610174600480360381019061016f9190610bef565b610300565b6040516101819190610dca565b60405180910390f35b34801561019657600080fd5b5061019f610412565b6040516101ac9190610de5565b60405180910390f35b3480156101c157600080fd5b506101ca610436565b6040516101d79190610de5565b60405180910390f35b3480156101ec57600080fd5b5061020760048036038101906102029190610bef565b61045e565b60405161021996959493929190610e00565b60405180910390f35b34801561022e57600080fd5b5061024960048036038101906102449190610bef565b6104e7565b6040516102569190610de5565b60405180910390f35b61027960048036038101906102749190610bef565b61054a565b005b34801561028757600080fd5b506102a2600480360381019061029d9190610ba0565b610876565b005b60007f0000000000000000000000000000000000000000000000000000000000000000905090565b7f000000000000000000000000000000000000000000000000000000000000000081565b60015481565b6000600154905090565b610308610b12565b600260008381526020019081526020016000206040518060c0016040529081600082015481526020016001820160009054906101000a900473ffffffffffffffffffffffffffffffffffffffff1673ffffffffffffffffffffffffffffffffffffffff1673ffffffffffffffffffffffffffffffffffffffff16815260200160028201548152602001600382015481526020016004820160009054906101000a900473ffffffffffffffffffffffffffffffffffffffff1673ffffffffffffffffffffffffffffffffffffffff1673ffffffffffffffffffffffffffffffffffffffff1681526020016004820160149054906101000a900460ff1615151515815250509050919050565b7f000000000000000000000000000000000000000000000000000000000000000081565b60007f0000000000000000000000000000000000000000000000000000000000000000905090565b60026020528060005260406000206000915090508060000154908060010160009054906101000a900473ffffffffffffffffffffffffffffffffffffffff16908060020154908060030154908060040160009054906101000a900473ffffffffffffffffffffffffffffffffffffffff16908060040160149054906101000a900460ff16905086565b600060647f000000000000000000000000000000000000000000000000000000000000000060646105189190610ea9565b60026000858152602001908152602001600020600301546105399190610f30565b6105439190610eff565b9050919050565b60026000541415610590576040517f08c379a000000000000000000000000000000000000000000000000000000000815260040161058790610daa565b60405180910390fd5b600260008190555060006105a3826104e7565b905060006002600084815260200190815260200160002090506000831180156105ce57506001548311155b6105d757600080fd5b813410156105e457600080fd5b8060040160149054906101000a900460ff161561060057600080fd5b8060040160009054906101000a900473ffffffffffffffffffffffffffffffffffffffff1673ffffffffffffffffffffffffffffffffffffffff166108fc82600301549081150290604051600060405180830381858888f1935050505015801561066e573d6000803e3d6000fd5b507f000000000000000000000000000000000000000000000000000000000000000073ffffffffffffffffffffffffffffffffffffffff166108fc8260030154846106b99190610f8a565b9081150290604051600060405180830381858888f193505050501580156106e4573d6000803e3d6000fd5b5060018160040160146101000a81548160ff0219169083151502179055508060010160009054906101000a900473ffffffffffffffffffffffffffffffffffffffff1673ffffffffffffffffffffffffffffffffffffffff166323b872dd303384600201546040518463ffffffff1660e01b815260040161076793929190610d73565b600060405180830381600087803b15801561078157600080fd5b505af1158015610795573d6000803e3d6000fd5b505050503373ffffffffffffffffffffffffffffffffffffffff168160040160009054906101000a900473ffffffffffffffffffffffffffffffffffffffff1673ffffffffffffffffffffffffffffffffffffffff168260010160009054906101000a900473ffffffffffffffffffffffffffffffffffffffff1673ffffffffffffffffffffffffffffffffffffffff167f8b4c9c8a607d67b321582dd8461041b1dc2ceeca70c8b7f37f8e02095cf2e76d868560020154866003015460405161086193929190610e61565b60405180910390a45050600160008190555050565b600260005414156108bc576040517f08c379a00000000000000000000000000000000000000000000000000000000081526004016108b390610daa565b60405180910390fd5b6002600081905550600081116108d157600080fd5b600160008154809291906108e49061104e565b91905055508273ffffffffffffffffffffffffffffffffffffffff166323b872dd3330856040518463ffffffff1660e01b815260040161092693929190610d73565b600060405180830381600087803b15801561094057600080fd5b505af1158015610954573d6000803e3d6000fd5b505050506040518060c0016040528060015481526020018473ffffffffffffffffffffffffffffffffffffffff1681526020018381526020018281526020013373ffffffffffffffffffffffffffffffffffffffff168152602001600015158152506002600060015481526020019081526020016000206000820151816000015560208201518160010160006101000a81548173ffffffffffffffffffffffffffffffffffffffff021916908373ffffffffffffffffffffffffffffffffffffffff160217905550604082015181600201556060820151816003015560808201518160040160006101000a81548173ffffffffffffffffffffffffffffffffffffffff021916908373ffffffffffffffffffffffffffffffffffffffff16021790555060a08201518160040160146101000a81548160ff0219169083151502179055509050503373ffffffffffffffffffffffffffffffffffffffff168373ffffffffffffffffffffffffffffffffffffffff167f655a0cf9c8db81512be9a76dc1c5ae5380b8816ce6ad659cd61b715e2999d59a6001548585604051610afd93929190610e61565b60405180910390a36001600081905550505050565b6040518060c0016040528060008152602001600073ffffffffffffffffffffffffffffffffffffffff1681526020016000815260200160008152602001600073ffffffffffffffffffffffffffffffffffffffff1681526020016000151581525090565b600081359050610b858161111e565b92915050565b600081359050610b9a81611135565b92915050565b600080600060608486031215610bb557600080fd5b6000610bc386828701610b76565b9350506020610bd486828701610b8b565b9250506040610be586828701610b8b565b9150509250925092565b600060208284031215610c0157600080fd5b6000610c0f84828501610b8b565b91505092915050565b610c2181610fd0565b82525050565b610c3081610fd0565b82525050565b610c3f81610fbe565b82525050565b610c4e81610fe2565b82525050565b610c5d81610fe2565b82525050565b610c6c8161102a565b82525050565b610c7b8161102a565b82525050565b6000610c8e601f83610e98565b9150610c99826110f5565b602082019050919050565b60c082016000820151610cba6000850182610d1f565b506020820151610ccd6020850182610c63565b506040820151610ce06040850182610d1f565b506060820151610cf36060850182610d1f565b506080820151610d066080850182610c18565b5060a0820151610d1960a0850182610c45565b50505050565b610d2881611020565b82525050565b610d3781611020565b82525050565b6000602082019050610d526000830184610c36565b92915050565b6000602082019050610d6d6000830184610c27565b92915050565b6000606082019050610d886000830186610c36565b610d956020830185610c36565b610da26040830184610d2e565b949350505050565b60006020820190508181036000830152610dc381610c81565b9050919050565b600060c082019050610ddf6000830184610ca4565b92915050565b6000602082019050610dfa6000830184610d2e565b92915050565b600060c082019050610e156000830189610d2e565b610e226020830188610c72565b610e2f6040830187610d2e565b610e3c6060830186610d2e565b610e496080830185610c27565b610e5660a0830184610c54565b979650505050505050565b6000606082019050610e766000830186610d2e565b610e836020830185610d2e565b610e906040830184610d2e565b949350505050565b600082825260208201905092915050565b6000610eb482611020565b9150610ebf83611020565b9250827fffffffffffffffffffffffffffffffffffffffffffffffffffffffffffffffff03821115610ef457610ef3611097565b5b828201905092915050565b6000610f0a82611020565b9150610f1583611020565b925082610f2557610f246110c6565b5b828204905092915050565b6000610f3b82611020565b9150610f4683611020565b9250817fffffffffffffffffffffffffffffffffffffffffffffffffffffffffffffffff0483118215151615610f7f57610f7e611097565b5b828202905092915050565b6000610f9582611020565b9150610fa083611020565b925082821015610fb357610fb2611097565b5b828203905092915050565b6000610fc982611000565b9050919050565b6000610fdb82611000565b9050919050565b60008115159050919050565b6000610ff982610fbe565b9050919050565b600073ffffffffffffffffffffffffffffffffffffffff82169050919050565b6000819050919050565b60006110358261103c565b9050919050565b600061104782611000565b9050919050565b600061105982611020565b91507fffffffffffffffffffffffffffffffffffffffffffffffffffffffffffffffff82141561108c5761108b611097565b5b600182019050919050565b7f4e487b7100000000000000000000000000000000000000000000000000000000600052601160045260246000fd5b7f4e487b7100000000000000000000000000000000000000000000000000000000600052601260045260246000fd5b7f5265656e7472616e637947756172643a207265656e7472616e742063616c6c00600082015250565b61112781610fee565b811461113257600080fd5b50565b61113e81611020565b811461114957600080fd5b5056fea26469706673582212208cfe8a3ed4a3e681fcffe554a30738755eb2aa414109e9f105b50f9e09a4b47664736f6c63430008040033",
  "linkReferences": {},
  "deployedLinkReferences": {}
}